S01300004D54325F526563656976652E737265631C
S11300000C9434000C9418010C9451000C9451007D
S11300100C9451000C9451000C9451000C94510018
S11300200C9451000C9451000C9451000C94510008
S11300300C9451000C9451000C9451000C945100F8
S11300400C9451000C9451000C9451000C945100E8
S11300500C9451000C9451000C9451000C945100D8
S11300600C9451000C94510011241FBECFEFD8E022
S1130070DEBFCDBF11E0A0E0B1E0E4EFF8E002C0E4
S113008005900D92A032B107D9F721E0A0E2B1E0CA
S113009001C01D92A532B207E1F70E94B9000C9489
S11300A078040C940000CF93DF930E943301EC0199
S11300B085E290E09983888322E02A839C838B8362
S11300C021E02D839F838E8325E028879A87898763
S11300D023E02B879D878C8784E08E87E9E6F0E018
S11300E0808182608083E89ACE010E942302CE013F
S11300F0DF91CF910895CF93DF93EC016BE071E032
S11301000E946F04892B11F4289A08C06EE071E0F4
S1130110CE010E946F04892B09F42898DF91CF91B6
S1130120089582E480937C0085E880937A000895A2
S11301309093C5008093C40088E08093C10086E05A
S11301408093C2000895CF93DF93FC012081222382
S113015069F0DC011196E0ECF0E0C6ECD0E09081AF
S113016095FFFDCF28832D912111F9CFDF91CF91F8
S11301700895CF93DF93CDB7DEB7AD970FB6F8945C
S1130180DEBF0FBECDBF85E0E6E0F1E0DE011196F3
S113019001900D928A95E1F7209A28980E94910087
S11301A087E690E00E94980082E191E00E94A3001B
S11301B02FE78AE196E0215080409040E1F700C0AB
S11301C0000078940E9453008C01AE014F5F5F4F92
S11301D060E070E00E948A0121E030E0AE014A5FF5
S11301E05F4F60E0C8010E947C0180912001882358
S11301F0E1F3109220010EC0BE01655F7F4FC8017C
S11302000E941E03CE010D960E947B00CE010D9626
S11302100E94A300C8010E94F1018111EDCFAE013B
S11302204F5F5F4F60E070E0C8010E948A01DDCF3C
S11302301F920F920FB60F9211248F9381E0809337
S113024020018F910F900FBE0F901F901895FC0105
S1130250A62FB72F9C012B5F3F4F91919D93E217DF
S1130260F307D9F7089580E190E00E944E0320E15E
S1130270FC0111922A95E9F70895CF93DF93EC01DD
S1130280DA01E881F981508181E090E00A8002C0BE
S1130290880F991F0A94E2F78095852380836EBDA9
S11302A00DB407FEFDCF8EB58F872115310579F08A
S11302B0FD012A0F3B1FDF0190819EBD0DB407FE97
S11302C0FDCF9EB59C933196E217F307A1F7E88121
S11302D0F981208181E090E00A8002C0880F991F93
S11302E00A94E2F7822B80838F85DF91CF91089562
S11302F060620E943D0108950E943D01089520E03E
S113030030E040E050E06FEF0E943D0108950E940C
S11303107F010895DF92EF92FF920F931F93CF9383
S1130320DF9300D000D000D0CDB7DEB77C01D62E4D
S1130330CA01BE016F5F7F4F0E9427016AE06D0D05
S113034025E030E0AE014F5F5F4FC7010E947801A6
S113035021E030E0AE014A5F5F4F62E0C7010E94D6
S11303607C0101E010E0C80102C0880F991FDA94F3
S1130370E2F79E81892B8E8321E030E0AE014A5F53
S11303805F4F62E0C7010E947801D7011396ED9197
S1130390FC911497808115960C9002C0000F111FD8
S11303A00A94E2F7082B008326960FB6F894DEBF72
S11303B00FBECDBFDF91CF911F910F91FF90EF90B2
S11303C0DF900895FC0127852E7030E03595279540
S11303D0263031051CF4822F932F08958FEF9FEF61
S11303E00895CF93DF93EC01EB81FC81208181E0C0
S11303F090E00D8002C0880F991F0A94E2F780955F
S113040082238083CE010E948701CE010E94E201F3
S1130410892F8095881F8827881FDF91CF910895A1
S1130420CF93DF931F92CDB7DEB720E7298321E076
S113043030E0AE014F5F5F4F67E00E9478010F909C
S1130440DF91CF910895FF920F931F93CF93DF9382
S11304501F92CDB7DEB78C01DC01ED91FC911197B1
S1130460429181E090E09C0112960C90129702C098
S1130470220F331F0A94E2F7242B20831396ED9165
S1130480FC91149742919C0115960C90159702C00B
S1130490220F331F0A94E2F7242B2083ED91FC9161
S11304A0119740819C0112960C90129702C0220F62
S11304B0331F0A94E2F7242B20831396ED91FC91C9
S11304C014973081AC0115960C90159702C0440F17
S11304D0551F0A94E2F7242F2095232320832CB55B
S11304E020612CBD2CB520642CBD1696ED91FC9199
S11304F0179742919C0118960C90189702C0220FEE
S1130500331F0A94E2F7242B20831996ED91FC9172
S11305101A9742919C011B960C901B9702C0220FC4
S1130520331F0A94E2F7242B20831C96ED91FC914F
S11305301D9722911E960C9002C0880F991F0A9451
S1130540E2F78095822380838CB5877F8CBD8CB540
S11305508B7F8CBD8CB58E7F8CBD8CB58D7F8CBD17
S11305608DB581608DBD8CB58F7D8CBD20E030E074
S113057040E050E062EEC8010E943D0120E030E01E
S113058040E050E061EEC8010E943D01C8010E94B4
S113059010028FE0898321E030E0AE014F5F5F4FAE
S11305A060E0C8010E9478010F2EFFE3FF2EF02DBA
S11305B0F98221E030E0AE014F5F5F4F61E0C80196
S11305C00E947801F98221E030E0AE014F5F5F4F75
S11305D06CE1C8010E94780184E0898321E030E065
S11305E0AE014F5F5F4F6DE1C8010E94780119822F
S11305F021E030E0AE014F5F5F4F62E0C8010E942E
S113060078010F90DF91CF911F910F91FF90089582
S1130610CF93DF931F92CDB7DEB7FC01978590642B
S1130620998321E030E0AE014F5F5F4F67E0CF0177
S11306300E9478010F90DF91CF9108950F931F933B
S1130640CF93DF938C01EB010E94E20199838883AD
S1130650C8010E9408038881998199231CF41AA275
S113066080E017C021E030E0AE014E5D5F4F60E6F0
S1130670C8010E947C012AA1222351F030E0AE017E
S11306804E5F5F4F61E6C8010E943D0181E001C0F9
S113069081E0DF91CF911F910F9108950F931F93E4
S11306A0CF93DF938230910510F482E090E0E091E3
S11306B02301F091240120E030E0A0E0B0E0309785
S11306C019F1408151810281138148175907C8F0FB
S11306D08417950769F4109731F012960C931297CA
S11306E013961C9327C0009323011093240122C066
S11306F02115310519F04217530718F49A01BD0169
S1130700EF01DF01F801DBCF21153105F9F0281BDA
S1130710390B2430310580F48A819B816115710580
S113072021F0FB019383828304C09093240180937E
S11307302301FE01329644C0FE01E20FF31F8193B0
S1130740919322503109398328833AC020912101A1
S113075030912201232B41F42091020130910301B5
S11307603093220120932101209100013091010155
S11307702115310541F42DB73EB740910401509144
S11307800501241B350BE0912101F0912201E217B0
S1130790F307A0F42E1B3F0B2817390778F0AC01A0
S11307A04E5F5F4F2417350748F04E0F5F1F50937D
S11307B02201409321018193919302C0E0E0F0E093
S11307C0CF01DF91CF911F910F910895CF93DF93C4
S11307D0009709F481C0FC01329713821282A09120
S11307E02301B0912401109781F420813181820F7B
S11307F0931F20912101309122012817390751F5C7
S1130800F0932201E093210167C0ED0120E030E084
S1130810CE17DF0740F44A815B819E0141155105E3
S1130820F1F0EA01F5CFD383C28340815181840F73
S1130830951FC817D90759F488819981840F951F8A
S11308400296918380838A819B819383828321157D
S1130850310529F4F0932401E09323013DC0E9011B
S1130860FB83EA8349915991C40FD51FEC17FD0707
S113087061F480819181840F951F0296E901998327
S11308808883828193819B838A83E0E0F0E01296DF
S11308908D919C911397009719F0FD01DC01F7CF1E
S11308A08D919C9111979D012E5F3F4F820F931F55
S11308B020912101309122012817390769F43097DA
S11308C029F4109224011092230102C0138212828F
S11308D0B0932201A0932101DF91CF910895FB01F0
S11308E0DC018D91019080190110D9F3990B0895C1
S10708F0F894FFCFA6
S11308F400002501200020304051614F4E004F4636
S11309044600436F6E6E6563746564210D0A0000CE
S9030000FC
